:100000000C9424010C94D5030C94E5030C94410149
:100010000C9441010C9441010C9441010C94410158
:100020000C9441010C9441010C9441010C94410148
:100030000C9441010C9441010C9441010C94410138
:100040000C9449040C9441010C9441010C9441011D
:100050000C9441010C9441010C9441010C94410118
:100060000C9441010C944101000000000000005F6D
:1000700000000007000700147F147F14242A7F2A41
:10008000122313086462364955225000050300000C
:10009000001C2241000041221C0014083E081408E4
:1000A000083E0808005030000008080808080060F2
:1000B00060000020100804023E5149453E00427F86
:1000C000400042615149462141454B311814127F8D
:1000D0001027454545393C4A494930017109050316
:1000E0003649494936064949291E0036360000007E
:1000F0005636000008142241001414141414004150
:100100002214080201510906324979413E7E11113B
:10011000117E7F494949363E414141227F4141227A
:100120001C7F494949417F090909013E4149497AF2
:100130007F0808087F00417F41002040413F017F48
:10014000081422417F404040407F020C027F7F0420
:1001500008107F3E4141413E7F090909063E415159
:10016000215E7F09192946464949493101017F012C
:10017000013F4040403F1F2040201F3F4038403F4C
:100180006314081463070870080761514945430068
:100190007F41410002040810200041417F00040219
:1001A0000102044040404040000102040020545439
:1001B00054787F48444438384444442038444448C0
:1001C0007F3854545418087E0901020C5252523E92
:1001D0007F0804047800447D40002040443D007FB7
:1001E0001028440000417F40007C041804787C08FB
:1001F00004047838444444387C1414140808141453
:10020000187C7C080404084854545420043F44409B
:10021000203C4040207C1C2040201C3C4030403C86
:1002200044281028440C5050503C4464544C440022
:100230000836410000007F00000041360800100829
:10024000081008784641467811241FBECFEFD8E049
:10025000DEBFCDBF11E0A0E0B1E0EEE9F0E102C009
:1002600005900D92A83BB107D9F721E0A8EBB1E0CA
:1002700001C01D92AD3CB207E1F70E948E040C94C0
:100280004D080C9400001092B90080E28093B800F1
:1002900084E08093BC00089584EA8093BC00809140
:1002A000BC0087FFFCCF089584E98093BC000895CB
:1002B0008093BB0084E88093BC008091BC0087FFE2
:1002C000FCCF0895CF93C82F0E944C0188E70E946D
:1002D000580180E00E9458018C2F0E94580184E947
:1002E0008093BC00CF910895CF93C82F0E944C01FA
:1002F00088E70E94580180E40E9458018C2F0E94D8
:10030000580184E98093BC00CF910895CF93DF9387
:10031000C0EB8C2F0E94620180E00E94620180E1AC
:100320000E946201D0E880E00E947401DA95D9F75A
:10033000CF5FC83B71F7DF91CF9108952FEF80E732
:1003400092E0215080409040E1F700C000008EEA2A
:100350000E94620185ED0E94620180E80E946201B4
:1003600088EA0E9462018FE30E94620183ED0E948D
:10037000620180E00E94620180E40E9462018DE8D7
:100380000E94620184E10E94620180E20E94620197
:1003900080E00E94620181EA0E94620188EC0E9472
:1003A00062018AED0E94620182E10E94620181E89D
:1003B0000E9462018FEC0E94620189ED0E9462013D
:1003C00081EF0E9462018BED0E94620180E40E9435
:1003D000620184EA0E94620186EA0E9462018FEA59
:1003E0000E9462010C948601CF93C62F80550E9413
:1003F00062018C2F8F700E9462018C2F82958F700A
:10040000805FCF910C946201EF92FF920F931F9344
:10041000CF93DF938C0195E0E92EF80181918F0154
:10042000811107C0DF91CF911F910F91FF90EF9045
:100430000895803294F3082E000C990B8097E89E63
:10044000E001E99ED00D1124C859DF4F85E0F82E58
:10045000FE0184910E947401FA942196F110F8CF64
:1004600080E00E947401D9CFEF92FF920F931F9307
:10047000CF93DF93CDB7DEB760970FB6F894DEBFAA
:100480000FBECDBF8C01F62EE72E0E94860160E0E4
:1004900080E00E94F40160E080E00E94F4010330FB
:1004A000110509F48FC0D8F40130110509F457C0C3
:1004B0000230110509F042C087E191E00E94040278
:1004C00002E060E0802F0E94F40110E0912F937011
:1004D0001F5F91116CC08CE30E947401F7CF043050
:1004E000110509F488C00530110509F49EC0EF928A
:1004F000FF928DE291E09F938F938E010F5F1F4FCC
:100500001F930F930E94630560E087E00E94F4014F
:10051000C8010E9404020F900F900F900F900F904F
:100520000F9060960FB6F894DEBF0FBECDBFDF917F
:10053000CF911F910F91FF90EF90089580E091E08F
:100540000E94040260E283E00E94F40100E410E0F3
:100550008AEA0E94740101501040D1F7C8CF83E1AC
:1005600091E00E94040212E060E0812F0E94F401F9
:1005700000E180E00E94740184E00E94740188E040
:100580000E94740180E10E9474018FE30E94740153
:1005900080E10E94740188E00E94740184E00E945E
:1005A00074010A9531F71F5F1630F1F6A0CF80E095
:1005B0000E947401103109F089CF0F5F063009F0F5
:1005C00080CF95CF8CE191E00E94040260E283E04D
:1005D0000E94F40180E011E0180F82FD05C08FEF4A
:1005E0000E947401812FF7CF80E00E947401812F57
:1005F000103489F77CCF88E291E00E94040212E077
:1006000060E0812F0E94F40100E0802F63E00E94EF
:1006100035058CE3911180E00E9474010F5F003179
:10062000A1F71F5F163061F762CF84E291E00E946C
:10063000040212E060E0812F0E94F40100E180E0FA
:100640000E94740180E20E94740180E10E947401A2
:1006500088E00E9474018FE30E94740188E00E9488
:10066000740180E10E94740180E20E9474010A9585
:1006700031F71F5F1630F1F63ACF9C0140E050E0B1
:1006800060E271EA87E090E00E9441052150310963
:100690003093C5002093C40088E08093C10086E0B9
:1006A0008093C20008959091C00095FFFCCF809385
:1006B000C6000895CF93DF93EC018991811103C0A7
:1006C000DF91CF9108950E945303F7CF0F931F93AB
:1006D000CF93DF93CDB7DEB728970FB6F894DEBF80
:1006E0000FBECDBF9F938F9384E391E09F938F9331
:1006F0008E010F5F1F4F1F930F930E946305C80168
:100700000E945A030F900F900F900F900F900F9030
:1007100028960FB6F894DEBF0FBECDBFDF91CF9104
:100720001F910F9108959C0186B59091B901911583
:1007300069F19091B801911549F14091BA01509138
:10074000BB016091BC017091BD0190E0A0E0B0E000
:10075000841B950BA60BB70B893B9B40A105B105EC
:10076000A8F4C90137FF04C088279927821B930B7F
:1007700006977CF02F3131057CF4263031057CF46E
:10078000223E3F4F7CF481E090E0089580E090E0CD
:10079000089583E090E0089585E090E0089584E076
:1007A00090E0089582E090E008958F939F93809168
:1007B0008400909185009093C8018093C70181E0E7
:1007C0008093B9019F918F9118952F932FB72F93F5
:1007D0003F938F939F93AF93BF93809184009091A9
:1007E00085009093C3018093C20181E08093B8019A
:1007F0002091C2013091C3018091C7019091C8013D
:1008000028173907E0F18091C2019091C30120912E
:10081000C7013091C801821B930B9093C60180934E
:10082000C5018091C5019091C6012091C001309110
:10083000C101821B930B9093BF018093BE018091F5
:10084000C5019091C6019093C1018093C00186B506
:1008500090E0A0E0B0E08093BA019093BB01A09338
:10086000BC01B093BD0181E08093C401BF91AF9101
:100870009F918F913F912F912FBF2F91189580912C
:10088000C2019091C3012091C7013091C801019725
:10089000C2CF1F921FB61F9211242F934F935F93C5
:1008A0006F937F938F939F93AF93BF938091CB016F
:1008B0009091CC010196883E23E0920788F49093B2
:1008C000CC018093CB01BF91AF919F918F917F918C
:1008D0006F915F914F912F911F901FBE1F901895A0
:1008E0001092CC011092CB0186B54091BA01509183
:1008F000BB016091BC017091BD0190E0A0E0B0E04F
:10090000841B950BA60BB70B893B9B40A105B1053A
:10091000D0F21092B9011092B801D5CF8AB1837F7D
:100920008AB98BB18C608BB9809169008F6080939C
:1009300069008DB383608DBB10928000809181002F
:1009400082608093810014BC85B5856085BD8091EF
:100950006E00816080936E0080E895E20E943D0306
:100960000E9443010E949E0160E080E00E94F40129
:1009700087E391E00E94040260E081E00E94F401BC
:1009800084E491E00E9404022FEF89E698E121506F
:1009900080409040E1F700C0000080E591E00E94B7
:1009A0005A0381E791E00E945A037894C0E0D0E0B6
:1009B00000E010E08091C4018115A9F11092C401FA
:1009C0008091C5019091C601C091BE01D091BF0137
:1009D000D7FD2196D595C795CE010E9493038C0132
:1009E00081E991E00E945A03CE010E9466038FE9DB
:1009F00091E00E945A038CE191E00330110569F007
:100A000000F583E191E00130110539F087E191E0D3
:100A10000230110511F08EEA91E00E945A038EE82F
:100A200091E00E945A038091CA018F5F8A3088F456
:100A30008093CA018FE19EE40197F1F700C00000A6
:100A4000B9CF84E291E00430110539F788E291E0F2
:100A5000E4CF1092CA018091C9018F5F8093C901D0
:100A6000BE01C8010E943402E5CF992778E0880FC3
:100A7000991F961708F0961B881F7A95C9F78095DD
:100A80000895A1E21A2EAA1BBB1BFD010DC0AA1FCF
:100A9000BB1FEE1FFF1FA217B307E407F50720F0E7
:100AA000A21BB30BE40BF50B661F771F881F991F62
:100AB0001A9469F760957095809590959B01AC01AB
:100AC000BD01CF010895AEE0B0E0E9E6F5E00C9499
:100AD00024080D891E8986E08C831A8309838FEF91
:100AE0009FE79E838D83AE01475E5F4F6F89788D50
:100AF000CE0101960E9486052F813885020F131FB3
:100B0000F80110822E96E4E00C944008ABE0B0E0CF
:100B1000ECE8F5E00C9417086C017B018A01FC01FC
:100B200017821682838181FFDAC19AE0492EF6018D
:100B30002381F70123FD859123FF81917F01811599
:100B400009F41FC1853239F423FD959123FF91915A
:100B50007F01953229F4B60190E00E948807E7CF23
:100B600030E0612C512C712CF0E27F1640F59B3265
:100B7000D9F058F49032D1F09332F1F09E3299F5D9
:100B800076FCFFC0689476F806C09D3291F09033F1
:100B9000C1F4689470F8F70123FD959123FF9191BA
:100BA0007F019111E1CF29C0689471F8689472F8BF
:100BB000F2CF689473F8EFCF689474F8ECCF77FCB9
:100BC0001CC080ED890F8A30C8F676FE05C0649C93
:100BD000800D1124682EDFCF549C800D1124582ED7
:100BE000689475F8D8CF9C3619F4689477F8D3CF09
:100BF0009C3409F44BC0983671F2892F8F7D85544F
:100C0000833008F445C0933609F466C0933709F47D
:100C100069C0933509F475C0943619F0993609F016
:100C20009FC0F80177FE95C061917191819191917A
:100C30008F01272D2F76722E97FF09C090958095F2
:100C4000709561957F4F8F4F9F4F689477F82AE09A
:100C500030E0AE014F5F5F4F5A010E94B8078A191A
:100C6000A82E76FEC5C0872D8E7FA61408F0BFC0C3
:100C700074FE12C172FC06C1F72DFE7E7F2EB62CCB
:100C8000872D8678811509F4C0C001C131E083CF7A
:100C90003115F9F0085F1F4F8FE38983882483940F
:100CA000912CAE014F5F5F4F5A01E89477F873FCC7
:100CB00003C085149104B0F181149104D1F551144D
:100CC00009F435CFB60180E290E00E9488075A947B
:100CD000F6CF0C5F1F4FE0CFF801808189830E5F54
:100CE0001F4FDCCFF801A190B1908F01662D70E00D
:100CF00076FC02C06FEF7FEFC5010E947D074C01BB
:100D0000D4CFF801A190B1908F01662D70E076FCF0
:100D100002C06FEF7FEFC5010E9472074C0168941B
:100D200077F8C5CFB60180E290E00E9488075A9418
:100D3000C0CFF50177FC859177FE81915F01B60107
:100D400090E00E94880751105A94F1E08F1A9108A0
:100D5000B3CF61917191072E000C880B990B68CF6E
:100D6000372CE89434F82AE030E0953739F1572DE4
:100D7000597F352E903799F058F49835A9F09F3661
:100D8000D9F0F601868197812B96E1E10C94330826
:100D90009837B9F774FC05C020E130E00FC06894C3
:100DA00034F8689432F8F8CF74FE03C0872D86605B
:100DB000382E20E132E002C028E030E0F80137FEB2
:100DC00011C061917191819191918F01FE013196D4
:100DD0005F01AF010E94B8078A19A82E732CE8940E
:100DE00077F83FCF6191719180E090E0EECF782E5F
:100DF000BA2C74FE45CFFE01EA0DF11D80818033CF
:100E000009F043C0272D297E722E73FC0EC070FEA0
:100E10004FC06A2CB51418F4650C6B18B52C852DD1
:100E20008B195B1408F480E0B80EB51408F042C0CA
:100E30005B1874FE41C0B60180E390E00E94880711
:100E400072FE09C088E590E071FC02C088E790E07E
:100E5000B6010E948807A614D8F1AA94B12C4FEFCE
:100E6000A41AB40ACE0101963C01A80EB91EF501E0
:100E700082915F01B60190E00E9488076A147B04AA
:100E8000B1F71DCFB62C782EB6CF72FC02C0B3944A
:100E9000BCCFB394B394B9CFB62C782EF1CEB601B3
:100EA00080E290E00E94880733943514C0F3B7CFF6
:100EB0003B2CFBCF512CBDCF872D8678811559F265
:100EC00080E271FC8BE277FC8DE2B60190E0C1CF4D
:100ED000B60180E390E00E9488076A94BCCF8FEF50
:100EE0009FEF52CFFC010590615070400110D8F780
:100EF000809590958E0F9F1F0895FC016150704062
:100F000001900110D8F7809590958E0F9F1F08953E
:100F10000F931F93CF93DF93182F092FEB018B8132
:100F200081FD09C01FEF0FEF812F902FDF91CF912F
:100F30001F910F91089582FF14C02E813F818C81F3
:100F40009D81281739073CF4E881F981CF0101968A
:100F50009983888310838E819F8101969F838E83DE
:100F6000E3CFE885F985812F0995892BA1F3DACFA5
:100F7000FA01AA27283051F1203181F1E8946F93CA
:100F80006E7F6E5F7F4F8F4F9F4FAF4FB1E03ED070
:100F9000B4E03CD0670F781F891F9A1FA11D680F0E
:100FA000791F8A1F911DA11D6A0F711D811D911D41
:100FB000A11D20D009F468943F912AE0269F1124B6
:100FC0003019305D3193DEF6CF010895462F47701A
:100FD000405D4193B3E00FD0C9F7F6CF462F4F7075
:100FE000405D4A3318F0495D31FD4052419302D0D3
:100FF000A9F7EACFB4E0A695979587957795679579
:10100000BA95C9F700976105710508959B01AC0178
:101010000A2E06945795479537952795BA95C9F79F
:10102000620F731F841F951FA01D08952F923F927A
:101030004F925F926F927F928F929F92AF92BF92E8
:10104000CF92DF92EF92FF920F931F93CF93DF9394
:10105000CDB7DEB7CA1BDB0B0FB6F894DEBF0FBEF1
:10106000CDBF09942A88398848885F846E847D843E
:101070008C849B84AA84B984C884DF80EE80FD8040
:101080000C811B81AA81B981CE0FD11D0FB6F894B6
:0E109000DEBF0FBECDBFED010895F894FFCF77
:10109E004E4F205349474E414C20444554454354EE
:1010AE00454400544F4F20534C4F5700494E205348
:1010BE00594E4300544F4F204641535400447269D9
:1010CE0066743A2025640053796E6368726F736399
:1010DE006F7065005374617274696E672E2E2E00E8
:1010EE0053796E6368726F73636F7065207769747E
:1010FE0068204F4C454420737461727465640D0A08
:10110E00002D2D2D2D2D2D2D2D2D2D2D2D2D2D2D2E
:10111E002D2D2D2D2D2D2D2D2D2D2D2D2D2D0D0A34
:10112E000050686173652044726966743A2000202D
:10113E007573207C205374617475733A20004E4F82
:08114E00205349474E414C00BB
:00000001FF
